:020000040000FA
:040000003AEF00F0E3
:100008003B82FACF01F0FBCF02F0F2A60EEF00F030
:1000180010EF00F01BEF00F0F2A015EF00F017EF63
:1000280000F01BEF00F07CEC03F034EF00F0F2ACD2
:1000380020EF00F022EF00F034EF00F09DAC27EF46
:1000480000F029EF00F034EF00F09EAC2EEF00F046
:1000580030EF00F034EF00F0E4EC02F034EF00F0A1
:1000680002C0FBFF01C0FAFF3B92110067EF03F0EB
:10007800000E2D6E000E2C6E000E2D6E000E2C6ED6
:10008800ADEF00F0000E196E1868000E1B6E000E22
:100098001A6E000E1D6E000E1C6E25C01EF026C0C6
:1000A8001FF032EC02F0000E196E1868000E1B6E7D
:1000B8001A68000E1D6E000E1C6E25C01EF026C0AC
:1000C8001FF032EC02F0000E196E000E186E000ED2
:1000D8001B6E1A68000E1D6E000E1C6E25C01EF0E9
:1000E80026C01FF032EC02F0000E196E000E186EDA
:1000F800000E1B6E1A68000E1D6E1C6825C01EF0CF
:1001080026C01FF032EC02F0000E196E000E186EB9
:10011800000E1B6E000E1A6E000E1D6E1C6825C0A8
:100128001EF026C01FF032EC02F0000E196E18689F
:10013800000E1B6E000E1A6E000E1D6E1C6825C088
:100148001EF026C01FF032EC02F0060E2C26000E20
:100158002D22FA0E276EFF0E286E23C029F024C028
:100168002AF02750292628502A2229502C5C2D5065
:10017800800A2B6E2A50800A2B58D8A0C6EF00F0B0
:10018800C8EF00F046EF00F08DEF01F0000E196E99
:100198001868000E1B6E000E1A6E000E1D6E000E03
:1001A8001C6E25C01EF026C01FF032EC02F02C4A4F
:1001B8002D2A23502C1807E124502D18D8A4E7EF36
:1001C80000F0E9EF00F0EBEF00F09CEF01F0000E1B
:1001D800196E1868000E1B6E1A68000E1D6E000E50
:1001E8001C6E25C01EF026C01FF032EC02F02C4A0F
:1001F8002D2A23502C1807E124502D18D8A407EFD6
:1002080001F009EF01F00BEF01F09CEF01F0000E97
:10021800196E000E186E000E1B6E1A68000E1D6E09
:10022800000E1C6E25C01EF026C01FF032EC02F036
:100238002C4A2D2A23502C1807E124502D18D8A415
:1002480028EF01F02AEF01F02CEF01F09CEF01F00C
:10025800000E196E000E186E000E1B6E1A68000E46
:100268001D6E1C6825C01EF026C01FF032EC02F07F
:100278002C4A2D2A23502C1807E124502D18D8A4D5
:1002880048EF01F04AEF01F04CEF01F09CEF01F06C
:10029800000E196E000E186E000E1B6E000E1A6E00
:1002A800000E1D6E1C6825C01EF026C01FF032EC23
:1002B80002F02C4A2D2A23502C1807E124502D181F
:1002C800D8A469EF01F06BEF01F06DEF01F09CEF3E
:1002D80001F0000E196E1868000E1B6E000E1A6EE3
:1002E800000E1D6E1C6825C01EF026C01FF032ECE3
:1002F80002F02C4A2D2A23502C1807E124502D18DF
:10030800D8A489EF01F08BEF01F08DEF01F09CEF9D
:1003180001F023502C5C2D50800A276E2450800A4F
:100328002758D8A09AEF01F09CEF01F0CAEF00F02F
:10033800030E276EE80EE82EFED7272EFCD71200F4
:10034800000E176E170E166E17BEB4EF01F0175099
:1003580009E1100E165CD8A0B4EF01F0B6EF01F079
:10036800D1EF01F0F00E16240E6EFF0E17200F6E5F
:100378000EC00BF005C00CF006C00DF00B2AC8EF3C
:1003880001F00D340D320C320B2EC5EF01F0010EC9
:100398000C14146E156A1EEF02F017BEDDEF01F0A3
:1003A800175009E1080E165CD8A0DDEF01F0DFEF69
:1003B80001F0FAEF01F0F80E1624106EFF0E172068
:1003C800116E10C00BF007C00CF008C00DF00B2A1E
:1003D800F1EF01F00D340D320C320B2EEEEF01F07F
:1003E800010E0C14146E156A1EEF02F017BEFFEF13
:1003F80001F001EF02F01AEF02F016C012F017C078
:1004080013F012C00BF009C00CF00AC00DF00B2A53
:1004180011EF02F00D340D320C320B2E0EEF02F0FC
:10042800010E0C14146E156A1EEF02F0000E156E04
:10043800010E146E14C003F015C004F039EC03F07B
:100448001606D8A01706162806E11728D8A42FEFF5
:1004580002F031EF02F0A8EF01F012001EC003F025
:100468001FC004F0FF0E066EFB0E056E26EC03F0AF
:10047800FF0E0324216E000E0420226E2150185C0A
:100488001950800A206E2250800A2058D8A04FEFB9
:1004980002F051EF02F057EF02F02150185C186E8D
:1004A80022501958196E21501A5C1B50800A206E70
:1004B8002250800A2058D8A064EF02F066EF02F0BC
:1004C8006CEF02F021501A5C1A6E22501B581B6EFA
:1004D80021501C5C1D50800A206E2250800A205832
:1004E800D8A079EF02F07BEF02F081EF02F0215003
:1004F8001C5C1C6E22501D581D6E18C005F019C0DA
:1005080006F01AC007F01BC008F01CC009F01DC097
:100518000AF0A4EC01F0120032C035F033C036F016
:10052800AAEF02F02EC023F02FC024F035C025F02A
:1005380036C026F03CEC00F0680E346EE40EE82E6F
:10054800FED7342EFCD700D0354A362A3550305CD9
:100558003150800A346E3650800A3458D8B0B7EF1C
:1005680002F0B9EF02F096EF02F030C037F031C078
:1005780038F0D4EF02F02EC023F02FC024F037C09B
:1005880025F038C026F03CEC00F0680E346EE40E1E
:10059800E82EFED7342EFCD700D03706D8A0380670
:1005A8003250375C3850800A346E3350800A3458E1
:1005B800D8B0E1EF02F0E3EF02F0BFEF02F0120073
:1005C8009E9C39503A10D8B4ECEF02F0EEEF02F0EE
:1005D800FBEF02F002D8FBEF02F00500FA6E39508B
:1005E800FD6E3A50FE6EF850FF6EFA50120012007F
:1005F800000E896E000E8A6E000E8B6E330E926EA0
:10060800F00E936E9468FB0E7E6E0F0E7F6E000EDA
:10061800786E000E776EF18EF28612005EEC03F0B3
:10062800000E2F6E640E2E6E000E316E200E306E90
:10063800000E336E030E326E90EC02F014EF03F0EE
:100648003AEF00F003500502F3CF07F0F4CF08F0BB
:1006580003500602F350082604500502F3500826FA
:1006680007C003F008C004F0120003500410D8B407
:1006780040EF03F042EF03F049EF03F0898400F004
:1006880000F000F089944BEF03F0898489941200FC
:10069800000EC16EB80EC06E000EC36E000EC46EA2
:1006A800010EC26E9D8CFC0E036E060E046E75EC78
:1006B80003F012007AEC03F0FCEC02F06EEC03F0AD
:1006C8004CEC03F012003B903B92000EF86E0001D8
:1006D80012EF03F0700ED36E040ED26E000E9B6EF6
:1006E800120003C039F004C03AF01200D09E120084
:0606F800F2901200120056
:020000040020DA
:08000000FFFFFFFFFFFFFFFF00
:020000040030CA
:0E000000FF281F1EFF8885FF03C003E003409A
:00000001FF
