:020000040000FA
:0400000026EF00F0F7
:100008004382FACF01F0FBCF02F0F2AC0EEF00F022
:1000180010EF00F020EF00F09DAC15EF00F017EFA7
:1000280000F020EF00F09EAC1CEF00F01EEF00F097
:1000380020EF00F0F9EC05F002C0FBFF01C0FAFF69
:080048004392110074EF06F071
:1002000000000000000000000000000000000000EE
:1002100000000000000000000000000000000000DE
:100220000000000000000000000000FF00000000CF
:1002300000FF00FF0000000000FF0000000000FFC2
:1002400000FF0000000000FF00FF000000FF0000B2
:10025000000000000000000E2D6E000E2C6E000E3F
:100260002D6E000E2C6E9CEF01F0000E196E1868BA
:10027000000E1B6E000E1A6E000E1D6E000E1C6E20
:1002800025C01EF026C01FF0A3EC04F0000E196E6E
:100290001868000E1B6E1A68000E1D6E000E1C6E94
:1002A00025C01EF026C01FF0A3EC04F0000E196E4E
:1002B000000E186E000E1B6E1A68000E1D6E000EEA
:1002C0001C6E25C01EF026C01FF0A3EC04F0000E2B
:1002D000196E000E186E000E1B6E1A68000E1D6E51
:1002E0001C6825C01EF026C01FF0A3EC04F0000E11
:1002F000196E000E186E000E1B6E000E1A6E000EA8
:100300001D6E1C6825C01EF026C01FF0A3EC04F073
:10031000000E196E1868000E1B6E000E1A6E000E8D
:100320001D6E1C6825C01EF026C01FF0A3EC04F053
:10033000060E2C26000E2D22FA0E276EFF0E286EBA
:1003400023C029F024C02AF02750292628502A2229
:1003500029502C5C2D50800A2B6E2A50800A2B5875
:10036000D8A0B5EF01F0B7EF01F035EF01F07CEF69
:1003700002F0000E196E1868000E1B6E000E1A6E49
:10038000000E1D6E000E1C6E25C01EF026C01FF054
:10039000A3EC04F02C4A2D2A23502C1807E12450FA
:1003A0002D18D8A4D6EF01F0D8EF01F0DAEF01F064
:1003B0008BEF02F0000E196E1868000E1B6E1A68A3
:1003C000000E1D6E000E1C6E25C01EF026C01FF014
:1003D000A3EC04F02C4A2D2A23502C1807E12450BA
:1003E0002D18D8A4F6EF01F0F8EF01F0FAEF01F0C4
:1003F0008BEF02F0000E196E000E186E000E1B6ED1
:100400001A68000E1D6E000E1C6E25C01EF026C060
:100410001FF0A3EC04F02C4A2D2A23502C1807E1DE
:1004200024502D18D8A417EF02F019EF02F01BEF9B
:1004300002F08BEF02F0000E196E000E186E000E27
:100440001B6E1A68000E1D6E1C6825C01EF026C0AB
:100450001FF0A3EC04F02C4A2D2A23502C1807E19E
:1004600024502D18D8A437EF02F039EF02F03BEFFB
:1004700002F08BEF02F0000E196E000E186E000EE7
:100480001B6E000E1A6E000E1D6E1C6825C01EF03D
:1004900026C01FF0A3EC04F02C4A2D2A23502C1860
:1004A00007E124502D18D8A458EF02F05AEF02F0BB
:1004B0005CEF02F08BEF02F0000E196E1868000E70
:1004C0001B6E000E1A6E000E1D6E1C6825C01EF0FD
:1004D00026C01FF0A3EC04F02C4A2D2A23502C1820
:1004E00007E124502D18D8A478EF02F07AEF02F03B
:1004F0007CEF02F08BEF02F023502C5C2D50800A31
:10050000276E2450800A2758D8A089EF02F08BEF7D
:1005100002F0B9EF01F0030E276EE80EE82EFED7C9
:10052000272EFCD71200000E306E000E2F6E000E2C
:10053000326E000E316E2AEF03F0000E346E000EA4
:10054000336E31503210D8A4A8EF02F0AAEF02F0B7
:10055000AEEF02F02FC033F030C034F033C008F0FB
:1005600034C009F0000E0B6E060E0A6E27EC06F082
:100570002B0E0824F66E020E0920F76E0900F5CF47
:1005800029F00A00F5CF2AF033C008F034C009F092
:10059000000E0B6E060E0A6E27EC06F0020E082601
:1005A000000E09222B0E0824F66E020E0920F76EAB
:1005B0000900F5CF2BF00A00F5CF2CF033C008F07E
:1005C00034C009F0000E0B6E060E0A6E27EC06F022
:1005D000040E0826000E09222B0E0824F66E020EC9
:1005E0000920F76E0900F5CF2DF00A00F5CF2EF0A7
:1005F00029C018F02AC019F02BC01AF02CC01BF02B
:100600002DC01CF02EC01DF025C01EF026C01FF00E
:10061000A3EC04F0314A322A2350311807E1245068
:100620003218D8A416EF03F018EF03F01AEF03F016
:100630002AEF03F0334A342A34BE28EF03F0345053
:1006400009E1060E335CD8A028EF03F02AEF03F08F
:10065000A1EF02F03150235C2450800A276E325003
:10066000800A2758D8B037EF03F039EF03F09DEF39
:1006700002F0030E276EE80EE82EFED7272EFCD7D9
:100680000B0E286E260E276E5E0EE82EFED7272E46
:10069000FCD7282EFAD70B0E286E260E276E5E0E7C
:1006A000E82EFED7272EFCD7282EFAD72F4A302A3D
:1006B00030BE64EF03F0305009E1060E2F5CD8A085
:1006C00064EF03F066EF03F097EF02F012006BECBB
:1006D00006F08B824DEC06F00A0E5FEC06F0000E81
:1006E000406E000E3F6E0A0EDCEC05F003C008F011
:1006F00004C009F0000E0B6E330E0A6E27EC06F0F4
:1007000008C00EF009C00FF0030E116E1068A2ECC5
:1007100005F00EC03BF00FC03CF03BC03DF03CC0CC
:100720003EF080BA96EF03F098EF03F0ACEF03F0E1
:10073000680E396EE40EE82EFED7392EFCD700D0B5
:1007400080BAA5EF03F0A7EF03F0ADEF03F08B80C5
:100750003F4A402AADEF03F08B908B923F50401000
:10076000D8A4B5EF03F0B7EF03F0C3EF03F0000E2A
:10077000246E320E236E3DC025F03EC026F093EC71
:1007800002F010EF04F03F044010D8A4CAEF03F0C9
:10079000CCEF03F0DCEF03F0000E2F6E640E2E6E34
:1007A0003DC030F03EC031F0000E336E030E326EAD
:1007B00001EC05F010EF04F0020E3F184010D8A431
:1007C000E4EF03F0E6EF03F0F2EF03F0000E2F6E1C
:1007D000640E2E6E3DC030F03EC031F055EC05F099
:1007E00010EF04F0000E406E000E3F6E8B820B0E79
:1007F0003A6E5A0E396E500EE82EFED7392EFCD7BF
:100800003A2EFAD700D08B920B0E3A6E5A0E396EF2
:10081000500EE82EFED7392EFCD73A2EFAD700D04C
:100820008B8273EF03F026EF00F0000E176E170EA9
:10083000166E17BE25EF04F0175009E1100E165C76
:10084000D8A025EF04F027EF04F042EF04F0F00EFB
:1008500016240E6EFF0E17200F6E0EC00BF005C093
:100860000CF006C00DF00B2A39EF04F00D340D32F8
:100870000C320B2E36EF04F0010E0C14146E156AB8
:100880008FEF04F017BE4EEF04F0175009E1080E89
:10089000165CD8A04EEF04F050EF04F06BEF04F0BC
:1008A000F80E1624106EFF0E1720116E10C00BF0FC
:1008B00007C00CF008C00DF00B2A62EF04F00D34F5
:1008C0000D320C320B2E5FEF04F0010E0C14146E7F
:1008D000156A8FEF04F017BE70EF04F072EF04F0AA
:1008E0008BEF04F016C012F017C013F012C00BF01B
:1008F00009C00CF00AC00DF00B2A82EF04F00D3491
:100900000D320C320B2E7FEF04F0010E0C14146E1E
:10091000156A8FEF04F0000E156E010E146E14C0F0
:1009200003F015C004F03AEC06F01606D8A017063E
:10093000162806E11728D8A4A0EF04F0A2EF04F0CF
:1009400019EF04F012001EC008F01FC009F0FF0EDE
:100950000B6EFB0E0A6E27EC06F0FF0E0824216ECC
:10096000000E0920226E2150185C1950800A206E5A
:100970002250800A2058D8A0C0EF04F0C2EF04F043
:10098000C8EF04F02150185C186E22501958196EE7
:1009900021501A5C1B50800A206E2250800A205879
:1009A000D8A0D5EF04F0D7EF04F0DDEF04F021502C
:1009B0001A5C1A6E22501B581B6E21501C5C1D5075
:1009C000800A206E2250800A2058D8A0EAEF04F056
:1009D000ECEF04F0F2EF04F021501C5C1C6E22508E
:1009E0001D581D6E18C005F019C006F01AC007F09A
:1009F0001BC008F01CC009F01DC00AF015EC04F083
:100A0000120032C035F033C036F01BEF05F02EC0B7
:100A100023F02FC024F035C025F036C026F02BEC93
:100A200001F0680E346EE40EE82EFED7342EFCD7AB
:100A300000D0354A362A3550305C3150800A346E49
:100A40003650800A3458D8B028EF05F02AEF05F068
:100A500007EF05F030C037F031C038F045EF05F052
:100A60002EC023F02FC024F037C025F038C026F068
:100A70002BEC01F0680E346EE40EE82EFED7342E17
:100A8000FCD700D03706D8A038063250375C385033
:100A9000800A346E3350800A3458D8B052EF05F0D3
:100AA00054EF05F030EF05F01200000E356E000E29
:100AB000346E6BEF05F0000E066E000E056E000E34
:100AC000086E000E076E000E0A6E000E096E15EC21
:100AD00004F0344A352A2E50345C3550800A326E88
:100AE0002F50800A3258D8A078EF05F07AEF05F041
:100AF0005BEF05F0030E326EE80EE82EFED7322EC5
:100B0000FCD70B0E336E260E326E5E0EE82EFED72D
:100B1000322EFCD7332EFAD72EC023F02FC024F06C
:100B200030C025F031C026F02BEC01F00B0E336EF7
:100B3000260E326E5E0EE82EFED7322EFCD7332EF6
:100B4000FAD71200000E136E000E126E1050111024
:100B5000D8B4ADEF05F0AFEF05F0D7EF05F0010E1B
:100B6000146EB7EF05F0D89010361136142A11AE76
:100B7000BCEF05F0BEEF05F0B3EF05F0D8901236EC
:100B8000133610500E5C11500F58D8A0CAEF05F064
:100B9000CCEF05F0D1EF05F010500E5E11500F5A5A
:100BA0001280D89011321032142EBEEF05F012C010
:100BB0000EF013C00FF01200076E07C005F00546D7
:100BC0000546C2500518C30B0518C26EC280C2820A
:100BD000C2B2EDEF05F0EFEF05F0E8EF05F0C4501D
:100BE000066E056AC3500524036E000E0620046ECF
:100BF00012009E9C41504210D8B401EF06F003EF62
:100C000006F010EF06F002D810EF06F00500FA6EBD
:100C10004150FD6E4250FE6EF850FF6EFA501200C9
:100C20001200000E896E000E8A6E000E8B6E330E5F
:100C3000926EF00E936EFC0E946EFB0E7E6E0F0E97
:100C40007F6E800E786E3A0E776EF19E120008501D
:100C50000A02F3CF0CF0F4CF0DF008500B02F35062
:100C60000D2609500A02F3500D260CC008F00DC0E5
:100C700009F0120003500410D8B441EF06F043EF1E
:100C800006F04AEF06F0898400F000F000F0899445
:100C90004CEF06F0898489941200000EC16EBE0EDE
:100CA000C06E000EC36E000EC46E290EC26E9D8C07
:100CB000120E036E0D0E046E82EC06F01200046E2E
:100CC00004C003F003460346C2500318C30B0318C5
:100CD000C26EC280120087EC06F011EC06F07BECCD
:100CE00006F04DEC06F0120043904392000EF86EB1
:100CF000000167EF03F0700ED36E040ED26E000E8B
:100D00009B6E120003C041F004C042F01200D09E5E
:040D100012001200BB
:020000040020DA
:08000000FFFFFFFFFFFFFFFF00
:020000040030CA
:0E000000FF281F1EFF8081FF03C003E00340A6
:00000001FF
