:020000040000FA
:04000000D1EF18F034
:1031A2000001E0EF18F0FBEC18F0D9EC18F0120077
:1031B200700ED36E040ED26E000E9B6E1200D4EC13
:1031C20018F09DEC19F0E2EF18F000EF00F001505A
:1031D2000210D8B4EFEF18F0F1EF18F0F8EF18F092
:1031E200898400F000F000F08994FAEF18F08984E5
:1031F20089941200000E896E000E8A6E000E8B6E8C
:10320200330E926EF00E936E94687E680F0E7F6E90
:10321200000E786E000E776EF18E1200000E156EA3
:10322200170E146E15BE1FEF19F0155009E1100E9E
:10323200145CD8A01FEF19F021EF19F03CEF19F040
:10324200F00E14240C6EFF0E15200D6E0CC009F04A
:1032520005C00AF006C00BF0092A33EF19F00B344F
:103262000B320A32092E30EF19F0010E0A14126ED7
:10327200136A89EF19F015BE48EF19F0155009E1EC
:10328200080E145CD8A048EF19F04AEF19F065EF68
:1032920019F0F80E14240E6EFF0E15200F6E0EC0DC
:1032A20009F003C00AF004C00BF0092A5CEF19F020
:1032B2000B340B320A32092E59EF19F0010E0A149F
:1032C200126E136A89EF19F015BE6AEF19F06CEFEE
:1032D20019F085EF19F014C010F015C011F010C0EC
:1032E20009F007C00AF008C00BF0092A7CEF19F0B8
:1032F2000B340B320A32092E79EF19F0010E0A143F
:10330200126E136A89EF19F0000E136E010E126E1F
:1033120012C001F013C002F0E8EC18F01406D8A0B5
:103322001506142806E11528D8A49AEF19F09CEF87
:1033320019F013EF19F01200F29E000E046E0368EA
:10334200000E066E000E056E000E086E000E076E71
:103352000FEC19F0000E046E000E036E000E066EE6
:10336200090E056E000E086E000E076E0FEC19F0C6
:10337200000E046E000E036E000E066E000E056E49
:10338200000E086E090E076E0FEC19F0000E046EA7
:10339200090E036E000E066E090E056E000E086E13
:1033A200000E076E0FEC19F0000E046E090E036E8C
:1033B200000E066E000E056E000E086E090E076EF8
:1033C2000FEC19F0000E046E000E036E000E066E76
:1033D200090E056E000E086E090E076E0FEC19F04D
:1033E200000E046E0368000E066E000E056E000EDF
:1033F200086E000E076E0FEC19F0000E046E000E40
:10340200036E000E066E090E056E000E086E000EAB
:10341200076E0FEC19F0000E046E000E036E000E24
:10342200066E000E056E000E086E090E076E0FEC9A
:1034320019F0000E046E090E036E000E066E090EE0
:10344200056E000E086E000E076E0FEC19F0000EEE
:10345200046E090E036E000E066E000E056E000E5F
:10346200086E090E076E0FEC19F0000E046E000EC6
:10347200036E000E066E090E056E000E086E090E32
:10348200076E0FEC19F0000E046E0368000E066E54
:10349200000E056E000E086E000E076E0FEC19F09E
:1034A200000E046E000E036E000E066E090E056E0F
:1034B200000E086E000E076E0FEC19F0000E046E7F
:1034C200000E036E000E066E000E056E000E086EF4
:1034D200090E076E0FEC19F0000E046E090E036E52
:1034E200000E066E090E056E000E086E000E076EC7
:1034F2000FEC19F0000E046E090E036E000E066E3C
:10350200000E056E000E086E090E076E0FEC19F024
:10351200000E046E000E036E000E066E090E056E9E
:10352200000E086E090E076E0FEC19F0030E176EEF
:10353200700E166E5C0EE82EFED7162EFCD7172ED6
:10354200FAD700D00B0E176E260E166E5E0EE82E00
:10355200FED7162EFCD7172EFAD7000E046E000ED9
:10356200036E000E066E090E056E000E086E090E41
:10357200076E0FEC19F0000E046E0368000E066E63
:10358200000E056E000E086E000E076E0FEC19F0AD
:10359200000E046E000E036E000E066E090E056E1E
:1035A200000E086E000E076E0FEC19F0000E046E8E
:1035B200000E036E000E066E000E056E000E086E03
:1035C200090E076E0FEC19F0000E046E090E036E61
:1035D200000E066E090E056E000E086E000E076ED6
:1035E2000FEC19F0000E046E090E036E000E066E4B
:1035F200000E056E000E086E090E076E0FEC19F034
:10360200000E046E000E036E000E066E090E056EAD
:10361200000E086E090E076E0FEC19F0000E046E14
:103622000368000E066E000E056E000E086E000E98
:10363200076E0FEC19F0000E046E000E036E000E02
:10364200066E090E056E000E086E000E076E0FEC78
:1036520019F0000E046E000E036E000E066E000ED0
:10366200056E000E086E090E076E0FEC19F0000EC3
:10367200046E090E036E000E066E090E056E000E34
:10368200086E000E076E0FEC19F0000E046E090EA4
:10369200036E000E066E000E056E000E086E090E19
:1036A200076E0FEC19F0000E046E000E036E000E92
:1036B200066E090E056E000E086E090E076E0FECFF
:1036C20019F0000E046E0368000E066E000E056E01
:1036D200000E086E000E076E0FEC19F0000E046E5D
:1036E200000E036E000E066E090E056E000E086EC9
:1036F200000E076E0FEC19F0000E046E000E036E42
:10370200000E066E000E056E000E086E090E076EA4
:103712000FEC19F0000E046E090E036E000E066E19
:10372200090E056E000E086E000E076E0FEC19F002
:10373200000E046E090E036E000E066E000E056E7C
:10374200000E086E090E076E0FEC19F0030E176ECD
:10375200700E166E5C0EE82EFED7162EFCD7172EB4
:10376200FAD700D00B0E176E260E166E5E0EE82EDE
:10377200FED7162EFCD7172EFAD7000E046E090EAE
:10378200036E000E066E000E056E000E086E090E28
:10379200076E0FEC19F0000E046E000E036E000EA1
:1037A200066E090E056E000E086E090E076E0FEC0E
:1037B20019F0000E046E0368000E066E000E056E10
:1037C200000E086E000E076E0FEC19F0000E046E6C
:1037D200000E036E000E066E090E056E000E086ED8
:1037E200000E076E0FEC19F0000E046E000E036E51
:1037F200000E066E000E056E000E086E090E076EB4
:103802000FEC19F0000E046E090E036E000E066E28
:10381200090E056E000E086E000E076E0FEC19F011
:10382200000E046E090E036E000E066E000E056E8B
:10383200000E086E090E076E0FEC19F0000E046EF2
:10384200000E036E000E066E090E056E000E086E67
:10385200090E076E0FEC19F0000E046E0368000EDD
:10386200066E000E056E000E086E000E076E0FEC5F
:1038720019F0000E046E000E036E000E066E090EA5
:10388200056E000E086E000E076E0FEC19F0000EAA
:10389200046E000E036E000E066E000E056E000E24
:1038A200086E090E076E0FEC19F0000E046E090E79
:1038B200036E000E066E090E056E000E086E000EF7
:1038C200076E0FEC19F0000E046E090E036E000E67
:1038D200066E000E056E000E086E090E076E0FECE6
:1038E20019F0000E046E000E036E000E066E090E35
:1038F200056E000E086E090E076E0FEC19F0000E31
:10390200046E0368000E066E000E056E000E086E51
:10391200000E076E0FEC19F0000E046E000E036E1F
:10392200000E066E090E056E000E086E000E076E82
:103932000FEC19F0000E046E000E036E000E066E00
:10394200000E056E000E086E090E076E0FEC19F0E0
:10395200000E046E090E036E000E066E090E056E51
:10396200000E086E000E076E0FEC19F0030E176EB4
:10397200700E166E5C0EE82EFED7162EFCD7172E92
:10398200FAD700D00B0E176E260E166E5E0EE82EBC
:10399200FED7162EFCD7172EFAD7000E046E090E8C
:1039A200036E000E066E090E056E000E086E000E06
:1039B200076E0FEC19F0000E046E090E036E000E76
:1039C200066E000E056E000E086E090E076E0FECF5
:1039D20019F0000E046E000E036E000E066E090E44
:1039E200056E000E086E090E076E0FEC19F0000E40
:1039F200046E0368000E066E000E056E000E086E61
:103A0200000E076E0FEC19F0000E046E000E036E2E
:103A1200000E066E090E056E000E086E000E076E91
:103A22000FEC19F0000E046E000E036E000E066E0F
:103A3200000E056E000E086E090E076E0FEC19F0EF
:103A4200000E046E090E036E000E066E090E056E60
:103A5200000E086E000E076E0FEC19F0000E046ED9
:103A6200090E036E000E066E000E056E000E086E45
:103A7200090E076E0FEC19F0000E046E000E036EB5
:103A8200000E066E090E056E000E086E090E076E18
:103A92000FEC19F0000E046E0368000E066E000EA5
:103AA200056E000E086E000E076E0FEC19F0000E88
:103AB200046E000E036E000E066E090E056E000EF9
:103AC200086E000E076E0FEC19F0000E046E000E69
:103AD200036E000E066E000E056E000E086E090ED5
:103AE200076E0FEC19F0000E046E090E036E000E45
:103AF200066E090E056E000E086E000E076E0FECC4
:103B020019F0000E046E090E036E000E066E000E12
:103B1200056E000E086E090E076E0FEC19F0000E0E
:103B2200046E000E036E000E066E090E056E000E88
:103B3200086E090E076E0FEC19F0000E046E036892
:103B4200000E066E000E056E000E086E000E076E69
:103B52000FEC19F0000E046E000E036E000E066EDE
:103B6200090E056E000E086E000E076E0FEC19F0BE
:103B7200000E046E000E036E000E066E000E056E41
:103B8200000E086E090E076E0FEC19F0030E176E89
:103B9200700E166E5C0EE82EFED7162EFCD7172E70
:103BA200FAD700D00B0E176E260E166E5E0EE82E9A
:103BB200FED7162EFCD7172EFAD7000E046E000E73
:103BC200036E000E066E000E056E000E086E090EE4
:103BD200076E0FEC19F0000E046E090E036E000E54
:103BE200066E090E056E000E086E000E076E0FECD3
:103BF20019F0000E046E090E036E000E066E000E22
:103C0200056E000E086E090E076E0FEC19F0000E1D
:103C1200046E000E036E000E066E090E056E000E97
:103C2200086E090E076E0FEC19F0000E046E0368A1
:103C3200000E066E000E056E000E086E000E076E78
:103C42000FEC19F0000E046E000E036E000E066EED
:103C5200090E056E000E086E000E076E0FEC19F0CD
:103C6200000E046E000E036E000E066E000E056E50
:103C7200000E086E090E076E0FEC19F0000E046EAE
:103C8200090E036E000E066E090E056E000E086E1A
:103C9200000E076E0FEC19F0000E046E090E036E93
:103CA200000E066E000E056E000E086E090E076EFF
:103CB2000FEC19F0000E046E000E036E000E066E7D
:103CC200090E056E000E086E090E076E0FEC19F054
:103CD200000E046E0368000E066E000E056E000EE6
:103CE200086E000E076E0FEC19F0000E046E000E47
:103CF200036E000E066E090E056E000E086E000EB3
:103D0200076E0FEC19F0000E046E000E036E000E2B
:103D1200066E000E056E000E086E090E076E0FECA1
:103D220019F0000E046E090E036E000E066E090EE7
:103D3200056E000E086E000E076E0FEC19F0000EF5
:103D4200046E090E036E000E066E000E056E000E66
:103D5200086E090E076E0FEC19F0000E046E000ECD
:103D6200036E000E066E090E056E000E086E090E39
:103D7200076E0FEC19F0000E046E0368000E066E5B
:103D8200000E056E000E086E000E076E0FEC19F0A5
:103D9200000E046E000E036E000E066E090E056E16
:103DA200000E086E000E076E0FEC19F0030E176E70
:103DB200700E166E5C0EE82EFED7162EFCD7172E4E
:103DC200FAD700D00B0E176E260E166E5E0EE82E78
:103DD200FED7162EFCD7172EFAD7000E046E000E51
:103DE200036E000E066E090E056E000E086E000EC2
:103DF200076E0FEC19F0000E046E000E036E000E3B
:103E0200066E000E056E000E086E090E076E0FECB0
:103E120019F0000E046E090E036E000E066E090EF6
:103E2200056E000E086E000E076E0FEC19F0000E04
:103E3200046E090E036E000E066E000E056E000E75
:103E4200086E090E076E0FEC19F0000E046E000EDC
:103E5200036E000E066E090E056E000E086E090E48
:103E6200076E0FEC19F0000E046E0368000E066E6A
:103E7200000E056E000E086E000E076E0FEC19F0B4
:103E8200000E046E000E036E000E066E090E056E25
:103E9200000E086E000E076E0FEC19F0000E046E95
:103EA200000E036E000E066E000E056E000E086E0A
:103EB200090E076E0FEC19F0000E046E090E036E68
:103EC200000E066E090E056E000E086E000E076EDD
:103ED2000FEC19F0000E046E090E036E000E066E52
:103EE200000E056E000E086E090E076E0FEC19F03B
:103EF200000E046E000E036E000E066E090E056EB5
:103F0200000E086E090E076E0FEC19F0000E046E1B
:103F12000368000E066E000E056E000E086E000E9F
:103F2200076E0FEC19F0000E046E000E036E000E09
:103F3200066E090E056E000E086E000E076E0FEC7F
:103F420019F0000E046E000E036E000E066E000ED7
:103F5200056E000E086E090E076E0FEC19F0000ECA
:103F6200046E090E036E000E066E090E056E000E3B
:103F7200086E000E076E0FEC19F0000E046E090EAB
:103F8200036E000E066E000E056E000E086E090E20
:103F9200076E0FEC19F0000E046E000E036E000E99
:103FA200066E090E056E000E086E090E076E0FEC06
:103FB20019F0000E046E0368000E066E000E056E08
:103FC200000E086E000E076E0FEC19F0030E176E4E
:103FD200700E166E5C0EE82EFED7162EFCD7172E2C
:103FE200FAD700D00B0E176E260E166E5E0EE82E56
:0E3FF200FED7162EFCD7172EFAD7F28E12002D
:020000040020DA
:08000000FFFFFFFFFFFFFFFF00
:020000040030CA
:0E000000FF281F1EFF8885FF03C003E003409A
:00000001FF
