:020000040000FA
:040000003AEF00F0E3
:100008003282FACF01F0FBCF02F0F2A60EEF00F039
:1000180010EF00F01BEF00F0F2A015EF00F017EF63
:1000280000F01BEF00F05EEC03F034EF00F0F2ACF0
:1000380020EF00F022EF00F034EF00F09DAC27EF46
:1000480000F029EF00F034EF00F09EAC2EEF00F046
:1000580030EF00F034EF00F0DDEC02F034EF00F0A8
:1000680002C0FBFF01C0FAFF3292110049EF03F012
:10007800000E2D6E000E2C6E52EF00F0000E066E74
:10008800000E056E000E086E000E076E000E0A6E5A
:10009800000E096EECEC01F02C4A2D2A23502C5C42
:1000A8002D50800A276E2450800A2758D8A05FEF69
:1000B80000F061EF00F042EF00F0030E286E700EC2
:1000C800276E5C0EE82EFED7272EFCD7282EFAD7EF
:1000D80000D00B0E286E260E276E5E0EE82EFED779
:1000E800272EFCD7282EFAD7000E2F6E000E2E6E64
:1000F800E5EF00F0000E196E1868000E1B6E000E7A
:100108001A6E000E1D6E000E1C6E25C01EF026C055
:100118001FF07AEC02F0000E196E1868000E1B6EC4
:100128001A68000E1D6E000E1C6E25C01EF026C03B
:100138001FF07AEC02F0000E196E000E186E000E19
:100148001B6E1A68000E1D6E000E1C6E25C01EF078
:1001580026C01FF07AEC02F0000E196E000E186E21
:10016800000E1B6E1A68000E1D6E1C6825C01EF05E
:1001780026C01FF07AEC02F0000E196E000E186E01
:10018800000E1B6E000E1A6E000E1D6E1C6825C038
:100198001EF026C01FF07AEC02F0000E196E1868E7
:1001A800000E1B6E000E1A6E000E1D6E1C6825C018
:1001B8001EF026C01FF07AEC02F0060E2E26000E66
:1001C8002F22FA0E276EFF0E286E23C029F024C0B6
:1001D8002AF02750292628502A2229502E5C2F50F1
:1001E800800A2B6E2A50800A2B58D8A0FEEF00F008
:1001F80000EF01F07EEF00F0C5EF01F0000E196E80
:100208001868000E1B6E000E1A6E000E1D6E000E92
:100218001C6E25C01EF026C01FF07AEC02F02E4A94
:100228002F2A23502E1807E124502F18D8A41FEF87
:1002380001F021EF01F023EF01F0D4EF01F0000EFF
:10024800196E1868000E1B6E1A68000E1D6E000EDF
:100258001C6E25C01EF026C01FF07AEC02F02E4A54
:100268002F2A23502E1807E124502F18D8A43FEF27
:1002780001F041EF01F043EF01F0D4EF01F0000E7F
:10028800196E000E186E000E1B6E1A68000E1D6E99
:10029800000E1C6E25C01EF026C01FF07AEC02F07E
:1002A8002E4A2F2A23502E1807E124502F18D8A49D
:1002B80060EF01F062EF01F064EF01F0D4EF01F0BC
:1002C800000E196E000E186E000E1B6E1A68000ED6
:1002D8001D6E1C6825C01EF026C01FF07AEC02F0C7
:1002E8002E4A2F2A23502E1807E124502F18D8A45D
:1002F80080EF01F082EF01F084EF01F0D4EF01F01C
:10030800000E196E000E186E000E1B6E000E1A6E8F
:10031800000E1D6E1C6825C01EF026C01FF07AEC6A
:1003280002F02E4A2F2A23502E1807E124502F18A6
:10033800D8A4A1EF01F0A3EF01F0A5EF01F0D4EFED
:1003480001F0000E196E1868000E1B6E000E1A6E72
:10035800000E1D6E1C6825C01EF026C01FF07AEC2A
:1003680002F02E4A2F2A23502E1807E124502F1866
:10037800D8A4C1EF01F0C3EF01F0C5EF01F0D4EF4D
:1003880001F023502E5C2F50800A276E2450800ADB
:100398002758D8A0D2EF01F0D4EF01F002EF01F016
:1003A800030E286E700E276E5C0EE82EFED7272EE1
:1003B800FCD7282EFAD700D00B0E286E260E276EF3
:1003C8005E0EE82EFED7272EFCD7282EFAD712006D
:1003D800000E176E170E166E17BEFCEF01F01750C1
:1003E80009E1100E165CD8A0FCEF01F0FEEF01F059
:1003F80019EF02F0F00E16240E6EFF0E17200F6E86
:100408000EC00BF005C00CF006C00DF00B2A10EF63
:1004180002F00D340D320C320B2E0DEF02F0010EEE
:100428000C14146E156A66EF02F017BE25EF02F081
:10043800175009E1080E165CD8A025EF02F027EF47
:1004480002F042EF02F0F80E1624106EFF0E17208D
:10045800116E10C00BF007C00CF008C00DF00B2A8D
:1004680039EF02F00D340D320C320B2E36EF02F05C
:10047800010E0C14146E156A66EF02F017BE47EFF2
:1004880002F049EF02F062EF02F016C012F017C056
:1004980013F012C00BF009C00CF00AC00DF00B2AC3
:1004A80059EF02F00D340D320C320B2E56EF02F0DC
:1004B800010E0C14146E156A66EF02F0000E156E2C
:1004C800010E146E14C003F015C004F00BEC03F019
:1004D8001606D8A01706162806E11728D8A477EF1D
:1004E80002F079EF02F0F0EF01F012001FBE85EF85
:1004F80002F01F5008E11E04D8A085EF02F087EF34
:1005080002F0CEEF02F01FBE95EF02F01F5007E198
:10051800090E1E5CD8B093EF02F095EF02F0CEEF13
:1005280002F01EC020F018C021F019C022F0202AC5
:10053800A1EF02F0223422322132202E9EEF02F067
:1005480021C018F022C019F01EC020F01AC021F0F6
:100558001BC022F0202AB4EF02F0223422322132CA
:10056800202EB1EF02F021C01AF022C01BF01EC0ED
:1005780020F01CC021F01DC022F0202AC7EF02F095
:10058800223422322132202EC4EF02F021C01CF086
:1005980022C01DF018C005F019C006F01AC007F0F7
:1005A8001BC008F01CC009F01DC00AF0ECEC01F0FB
:1005B80012009E9C30503110D8B4E5EF02F0E7EFFE
:1005C80002F0F4EF02F002D8F4EF02F00500FA6E40
:1005D8003050FD6E3150FE6EF850FF6EFA5012002A
:1005E8001200000E896E000E8A6E000E8B6E330E9E
:1005F800926EF00E936E9468FB0E7E6E0F0E7F6EF9
:10060800000E786E000E776EF18EF286120003509F
:100618000410D8B412EF03F014EF03F01BEF03F04B
:10062800898400F000F000F089941DEF03F08984BC
:1006380089941200000EC16EB80EC06E000EC36E13
:10064800000EC46E010EC26E9D8CC00E036E060EA7
:10065800046E57EC03F0120040EC03F0000E246E19
:10066800640E236E000E266E020E256E3CEC00F022
:1006780032EF03F03AEF00F05CEC03F0F5EC02F037
:1006880050EC03F01EEC03F0120032903292000E90
:10069800F86E000130EF03F0700ED36E040ED26EC8
:1006A800000E9B6E120003C030F004C031F012003F
:0A06B800D09E1200F2901200120012
:020000040020DA
:08000000FFFFFFFFFFFFFFFF00
:020000040030CA
:0E000000FF281F1EFF8885FF03C003E003409A
:00000001FF
